:100000000C942A000C94F9000C9422010C944B01DE
:100010000C9447000C9447000C9447000C94120970
:100020000C9447000C9447000C9447000C94470034
:100030000C9447000C9447000C9447000C94470024
:100040000C9447000C9447000C9447000C94470014
:100050000C94470011241FBECFE5D8E0DEBFCDBF12
:1000600010E0A0E6B0E0E4E6F7E202C005900D92F1
:10007000A838B107D9F715E0A8E8B0E001C01D9293
:10008000A831B107E1F70E94CE120C94B0130C9482
:1000900000006D9A6C986E9A0895FB0161157105C8
:1000A00029F08FB9779BFECF8FB1808308958FB7EA
:1000B00080688FBF08958FB78F778FBF0895813085
:1000C00009F1813020F0823009F047C03AC0613038
:1000D00051F0613028F0623061F06330F1F50CC00E
:1000E00085B78E7F02C085B7816085BF85B78D7F5C
:1000F00026C085B78E7F02C085B7816085BF85B772
:1001000082601DC0613069F0613028F0623061F0BA
:10011000633019F50FC085B7877F85BF85B78B7FA3
:100120000EC085B7877F08C085B78B7F85BF85B731
:10013000886005C085B7886085BF85B7846085BF46
:100140000895623019F0633041F404C084B78F7BA6
:1001500084BF089584B7806484BF0895813041F0DE
:10016000813018F0823059F407C08BB7806402C028
:100170008BB780688BBF08958BB780628BBF089563
:10018000813041F0813018F0823059F407C08BB7CC
:100190008F7B02C08BB78F778BBF08958BB78F7D16
:1001A0008BBF0895813061F0813020F0823069F09A
:1001B00080E008958AB78295869586958170089526
:1001C0008AB7881F8827881F08958AB782958695E1
:1001D000817008959093890080938800089590938A
:1001E0008B0080938A00089590938D0080938C00FB
:1001F00008951F920F920FB60F9211242F933F93E1
:100200004F935F936F937F938F939F93AF93BF931E
:10021000EF93FF93E0918800F0918900309709F007
:100220000995FF91EF91BF91AF919F918F917F9130
:100230006F915F914F913F912F910F900FBE0F9053
:100240001F9018951F920F920FB60F9211242F93A3
:100250003F934F935F936F937F938F939F93AF934E
:10026000BF93EF93FF93E0918A00F0918B0030975A
:1002700009F00995FF91EF91BF91AF919F918F91F7
:100280007F916F915F914F913F912F910F900FBE92
:100290000F901F9018951F920F920FB60F92112476
:1002A0002F933F934F935F936F937F938F939F937E
:1002B000AF93BF93EF93FF93E0918C00F0918D008B
:1002C000309709F00995FF91EF91BF91AF919F9100
:1002D0008F917F916F915F914F913F912F910F90EF
:1002E0000FBE0F901F9018954423C9F1413009F0BB
:1002F0006EC0813099F0813030F08230D1F083309F
:1003000009F065C021C02AB381E090E002C0880FE7
:10031000991F6A95E2F7282B2ABB089527B381E03D
:1003200090E002C0880F991F6A95E2F7282B27BB3F
:10033000089524B381E090E002C0880F991F6A9568
:10034000E2F7282B24BB089521B381E090E002C09E
:10035000880F991F6A95E2F7282B21BB08958130F9
:1003600099F0813028F08230D9F0833081F524C0B3
:100370002AB381E090E002C0880F991F6A95E2F7E6
:10038000809582238ABB089527B381E090E002C064
:10039000880F991F6A95E2F78095822387BB08959D
:1003A00024B381E090E002C0880F991F6A95E2F7BC
:1003B0008095822384BB089521B381E090E002C040
:1003C000880F991F6A95E2F78095822381BB089573
:1003D0004423C9F1413009F06EC0813099F0813079
:1003E00030F08230D1F0833009F065C021C02BB3EA
:1003F00081E090E002C0880F991F6A95E2F7282BF0
:100400002BBB089528B381E090E002C0880F991FAC
:100410006A95E2F7282B28BB089525B381E090E088
:1004200002C0880F991F6A95E2F7282B25BB089513
:1004300022B381E090E002C0880F991F6A95E2F72D
:10044000282B22BB0895813099F0813028F082302A
:10045000D9F0833081F524C02BB381E090E002C055
:10046000880F991F6A95E2F7809582238BBB0895C8
:1004700028B381E090E002C0880F991F6A95E2F7E7
:100480008095822388BB089525B381E090E002C067
:10049000880F991F6A95E2F78095822385BB08959E
:1004A00022B381E090E002C0880F991F6A95E2F7BD
:1004B0008095822382BB0895813051F0813030F0E5
:1004C000823041F0833079F080E0089589B303C031
:1004D00086B301C083B390E002C0959587956A9575
:1004E000E2F78170089580B390E002C095958795FA
:1004F0006A95E2F781700895813091F0813028F09B
:100500008230C9F0833061F521C02BB381E090E0E7
:1005100002C0880F991F6A95E2F728272BBB089520
:1005200028B381E090E002C0880F991F6A95E2F736
:10053000282728BB089525B381E090E002C0880FEA
:10054000991F6A95E2F7282725BB089522B381E019
:1005500090E002C0880F991F6A95E2F7282722BB16
:100560000895813049F0813028F0823039F08330AD
:1005700041F406C06ABB089567BB089564BB089543
:1005800061BB0895813049F0813028F0823039F024
:10059000833041F406C06BBB089568BB089565BB0A
:1005A000089562BB089586B1887F86B986B1876059
:1005B00086B93D98359A80B7806480BF87B18F73C4
:1005C00087B93E9A379A089597B1907E97B997B1B7
:1005D000982B97B9349BFECF349A24B135B1C90119
:1005E0000895339A089533980895EF92FF921F93D8
:1005F000182F81E061E040E00E94E80181E062E0C4
:1006000040E00E94E801412F4295417080E064E0A3
:100610000E94E801412F42954695417080E065E0D7
:100620000E94E801412F429546954695417080E031
:1006300066E00E94E801412F441F4427441F80E0E8
:1006400067E00E94E80181E063E041E00E94E80188
:1006500080EDE82E87E0F82EC7010197F1F781E0E1
:1006600063E040E00E94E801412F417080E064E0D7
:100670000E94E801412F4695417080E065E00E94AC
:10068000E80116951695412F417080E066E00E94C2
:10069000E8011695117080E067E0412F0E94E801A3
:1006A00081E063E041E00E94E801C7010197F1F7B2
:1006B00081E063E040E00E94E8011F91FF90EF902D
:1006C000089581E00E94F50280E797E10197F1F734
:1006D0000895882329F4862F80680E94F5020895E2
:1006E000813021F4862F80540E94F5020895EF9204
:1006F000FF921F93182F81E061E041E00E94E80122
:1007000081E062E040E00E94E801412F42954170A3
:1007100080E064E00E94E801412F429546954170D7
:1007200080E065E00E94E801412F4295469546959C
:10073000417080E066E00E94E801412F441F442799
:10074000441F80E067E00E94E80181E063E041E04F
:100750000E94E80190EDE92E97E0F92EC70101977C
:10076000F1F781E063E040E00E94E801412F417031
:1007700080E064E00E94E801412F4695417080E0EE
:1007800065E00E94E80116951695412F417080E0C2
:1007900066E00E94E8011695117080E067E0412F45
:1007A0000E94E80181E063E041E00E94E801C701A6
:1007B0000197F1F781E063E040E00E94E8011F91BA
:1007C000FF90EF9008950F931F93CF93DF938C01C9
:1007D000862F880F880F880F805C0E94F502C0E08A
:1007E000D0E0F801EC0FFD1F80810E947703219675
:1007F000C830D105B1F780E80E94F502DF91CF91B2
:100800001F910F910895AF92BF92CF92DF92EF9216
:10081000FF920F931F93DF93CF93CDB7DEB72D9742
:100820000FB6F894DEBF0FBECDBF6B017C01611522
:1008300071058105910511F480E30BC097FF0BC092
:10084000F094E094D094C094C11CD11CE11CF11C24
:100850008DE20E94770310E05E010894A11CB11C98
:100860001EC0C501810F911D9D878C87C701B601F0
:100870002AE030E040E050E00E945413605DEC85D7
:10088000FD856083C701B6012AE030E040E050E01A
:100890000E945413C901DA016C017D011F5FC1146C
:1008A000D104E104F104E9F6012F0150E02EFF2408
:1008B000E7FCF094EA0CFB1C08C0F70180810E9461
:1008C000770301500894E108F10807FFF6CF2D9651
:1008D0000FB6F894DEBF0FBECDBFCF91DF911F9151
:1008E0000F91FF90EF90DF90CF90BF90AF90089561
:1008F0001F93CF93DF93EC0110E003C00E947703B6
:100900001F5FFE01E10FF11D80818823B9F7DF91A0
:10091000CF911F9108951F9380E064E041E00E9411
:10092000740180E065E041E00E94740180E066E0CF
:1009300041E00E94740180E067E041E00E947401A0
:1009400081E061E041E00E94740181E062E041E009
:100950000E94740181E063E041E00E9474018EE531
:1009600091E028EC30E0F9013197F1F70197D9F7E0
:1009700082E00E94F50288E20E94F50215E7812FCD
:100980008A95F1F78FE00E94F5021A95F1F781E060
:100990000E94F50280EA9FE00197F1F786E00E944D
:1009A000F5021F9108959F92AF92BF92CF92DF926E
:1009B000EF92FF920F931F93CF93DF9335E7A32E10
:1009C00030E0B32E29E7C22E20E0D22E10E094E5CD
:1009D000992EEE24FF24F5018081F601608140E02C
:1009E0000E94E80180917D00609181000E945C027C
:1009F000882319F460E070E020C080917E0060914F
:100A000082000E945C02882319F461E070E015C046
:100A100080917F00609183000E945C02882319F41A
:100A200062E070E00AC080918000609184000E94C2
:100A30005C028823D1F463E070E0F701EE0FFF1F42
:100A4000EE0FFF1FE60FF71FEB59FF4F90808B0152
:100A500003581F4FEB01CF57DF4FF80180816881AA
:100A60000E945C028823C9F311E0F5018081F60140
:100A7000608141E00E94E801113071F00894E11CAE
:100A8000F11C0894A11CB11C0894C11CD11CF4E0F9
:100A9000EF16F10409F09FCF892DDF91CF911F91BF
:100AA0000F91FF90EF90DF90CF90BF90AF909F900D
:100AB000089582E060E041E00E94740182E061E01C
:100AC00041E00E94740182E062E041E00E94740112
:100AD00082E063E041E00E94740183E060E040E076
:100AE0000E94740183E061E040E00E94740183E0B1
:100AF00062E040E00E94740183E063E040E00E9415
:100B0000740182E060E041E00E94E80182E061E07F
:100B100041E00E94E80182E062E041E00E94E801D9
:100B200082E063E041E00E94E80183E060E041E0B0
:100B30000E94E80183E061E041E00E94E80183E077
:100B400062E041E00E94E80183E063E041E00E944E
:100B5000E8010895EF92FF920F931F93FC01058027
:100B6000F681E02DE680F7808701045F1F4FC80102
:100B70000E9411088FEB90E0B8010E94B30720E0BB
:100B8000E0918E00F0918F00D70156969C91868956
:100B9000981708F021E0822F1F910F91FF90EF909E
:100BA0000895FF920F931F93CF93DF9399E0F92E4F
:100BB00021C0F894E091C400F091C500068117812E
:100BC000C8010C960E9411087894E8012296CE0183
:100BD0000E941108F801968980919000891710F4FD
:100BE000909390009F9DC001112489569F4FBE0194
:100BF0000E94B3078091BF008823D9F60E94750C2C
:100C00002091910030919200821B930B909394005D
:100C10008093930089E0F82E53C00196909396003C
:100C2000809395002150304030939400209393009E
:100C3000892B09F03EC02091BB003091BC0080910F
:100C4000BD009091BE009093BC008093BB00309398
:100C5000BE002093BD002DC00580F681E02DC68129
:100C6000D78120919500309196008A819B81281729
:100C7000390730F1F8948E010E5F1F4FC8010E94B2
:100C800011088C899D89892B21F0CE010C960E9438
:100C9000110878949E8980919000891710F49093A0
:100CA00090009F9DC001112489569F4FB8010E945A
:100CB000B307E091BB00F091BC008081882361F60E
:100CC000209193003091940080919500909196002E
:100CD0002115310509F0A1CF9093920080939100E6
:100CE0009091900029E006C0992319F41092900089
:100CF00032C09150929FD0011124A956BF4F8C91C0
:100D0000882391F3909390001196ED91FC911297A6
:100D10000280F381E02D1296FC93EE931197CD01A2
:100D20000396E817F90731F48281938112969C9318
:100D30008E9311971196ED91FC9112970680F78191
:100D4000E02DF0938F00E0938E0020813181CF0160
:100D50006789F9010995DF91CF911F910F91FF905C
:100D600008950F931F93CF93DF93EB0100919500AC
:100D700010919600080F191F80918E0090918F009E
:100D800002960E941108E0918E00F0918F0013836B
:100D900002838091950090919600BF016E5F7F4F16
:100DA0000817190728F48091BD009091BE0004C077
:100DB0008091BB009091BC000E94DC07209749F015
:100DC00060918E0070918F00645F7F4FCE010E9412
:100DD000DC07DF91CF911F910F910895AF92BF92E1
:100DE000CF92DF92EF92FF920F931F93CF93DF93F7
:100DF0006C01B62EA42E8AE190E00E947807EC01E7
:100E0000009711F48FEF59C080918E0090918F0060
:100E1000892B21F5D0938F00C0938E0087E990E055
:100E20000E949F0780EA90E00E949F0729EAE22E35
:100E300020E0F22EC7010E949F0702EB10E0C801DC
:100E40000E949F078FEB90E00E949F07F092BC00EA
:100E5000E092BB001093BE000093BD00EB2CBB20C2
:100E600011F0EE24E394198E188EEE8AAF8AFE01FB
:100E7000C192D1928F01CF010E94AF07CE010C9693
:100E80000E94AF07D987C887DB8BCA8B84E090E0CC
:100E90008E1991099D878C879E8980919000891772
:100EA00010F49093900089E0989FC0011124895616
:100EB0009F4FB8010E94B30781E0DF91CF911F914E
:100EC0000F91FF90EF90DF90CF90BF90AF9008957B
:100ED00008951092C9001092C800089528EE33E0DA
:100EE0008091C8009091C900281B390BC901089551
:100EF0000F931F93CF93DF938C010E946F0C80910F
:100F0000C8009091C9009801280F391F43E0283E7E
:100F1000340758F48217930740F4EC01C653DF4FAF
:100F20003093C9002093C80002C0C0E0D0E00E9406
:100F3000AC0ECE01DF91CF911F910F910895FC016E
:100F40009C012D5F3F4F328321838FEF9FEF94836E
:100F50008383368325833087278310820895FC019D
:100F6000118610860895CF93DF93AC01DB01EC016D
:100F700029813A81F9018281938113969C938E9302
:100F8000129789819A8115969C938E93149702806B
:100F9000F381E02D75836483E9017B836A83FA0121
:100FA0007283618319965C934E93189780818F5F4B
:100FB0008083DF91CF910895CF93DF939C01EB0164
:100FC000488159818FEF4F3F580721F4F901A781DC
:100FD000B08510C0D901139604C012960D90BC9133
:100FE000A02D1296ED91FC91139780819181481765
:100FF000590798F71296ED91FC911397FB83EA83BA
:10100000D583C483BD83AC831396DC93CE931297B0
:1010100039872887F90180818F5F8083DF91CF91A5
:101020000895CF93DF93DC011296ED91FC91139715
:1010300014968D919C911597958384831496CD91E8
:10104000DC911597FB83EA831896ED91FC91199733
:10105000818192818A179B0711F4D283C1831996EB
:101060001C921E921897808181508083DF91CF91CE
:101070000895FC0191E1908322E2229383E382931D
:1010800062937293129280E88293129282E082932A
:1010900083E0829384E0829385E0829386E082936A
:1010A00087E0829388E0829389E0829380E1829353
:1010B000929382E1829383E1829384E1829385E13A
:1010C000829386E1829387E1829388E1829389E12A
:1010D000829380E2829381E28293229383E28293DD
:1010E0004293529386E2829387E2829388E28293CC
:1010F00089E2829380E3829381E382933197CF01E7
:1011000008951BBC8CE78ABD8BE08EBD89B78061DA
:1011100089BFA091B204B091B304CD91CDBFDD9150
:10112000DEBFFF91EF91DF91CF91BF91AF919F9182
:101130008F917F916F915F914F913F912F911F916F
:101140000F91FF90EF90DF90CF90BF90AF909F9066
:101150008F907F906F905F904F903F902F901F9057
:101160000F900FBE0F90089581E0089508950F929B
:101170000FB6F8940F921F9211242F923F924F9224
:101180005F926F927F928F929F92AF92BF92CF9217
:10119000DF92EF92FF920F931F932F933F934F9302
:1011A0005F936F937F938F939F93AF93BF93CF93EF
:1011B000DF93EF93FF93A091B204B091B3040DB607
:1011C0000D920EB60D920E94570D0E94890CA091AF
:1011D000B204B091B304CD91CDBFDD91DEBFFF91DC
:1011E000EF91DF91CF91BF91AF919F918F917F91BF
:1011F0006F915F914F913F912F911F910F91FF90B0
:10120000EF90DF90CF90BF90AF909F908F907F90A6
:101210006F905F904F903F902F901F900F900FBE58
:101220000F9008950E94B70818950F920FB6F89482
:101230000F921F9211242F923F924F925F926F92C2
:101240007F928F929F92AF92BF92CF92DF92EF9256
:10125000FF920F931F932F933F934F935F936F933F
:101260007F938F939F93AF93BF93CF93DF93EF932E
:10127000FF93A091B204B091B3040DB60D920EB6D7
:101280000D920E94890CA091B204B091B304CD914B
:10129000CDBFDD91DEBFFF91EF91DF91CF91BF9187
:1012A000AF919F918F917F916F915F914F913F91FE
:1012B0002F911F910F91FF90EF90DF90CF90BF90F3
:1012C000AF909F908F907F906F905F904F903F90E6
:1012D0002F901F900F900FBE0F900895FC010FB636
:1012E000F8940F92828D0F900FBE0895FC01828DAD
:1012F0000895FC01828D90E0882309F491E0892F04
:101300000895FC01928D20E0838D981709F421E067
:10131000822F08950F931F938C01FC01808191818E
:101320000E946807C8010E9468071F910F910895E5
:101330000F931F93CF93DF93EC01FB018A018A8DFA
:10134000882381F14881598141155105A9F08C8D7F
:101350002E813F81280F311D3F832E838A819B81FF
:101360002817390710F05F834E834C8D6E817F8183
:10137000CF0150E00E9491138A8D81508A8F8D8D0C
:101380008F3F69F48885882361F0CE0108960E941A
:10139000180D882331F081E0F801808303C08F5F4E
:1013A0008D8F81E0DF91CF911F910F910895CF93A1
:1013B000DF93EC01842F4C8D4423A1F18823B1F4F9
:1013C0008C819D8150E00E9491138C8D2C813D81F8
:1013D000280F311D3D832C838A819B812817390773
:1013E00008F1888199819D838C831CC08E819F81A7
:1013F00050E00E9491138C8D90E044275527481BA4
:10140000590B8E819F81840F951F9F838E83288126
:1014100039818217930730F48A819B81840F951F4D
:101420009F838E838A8D8F5F8A8FDF91CF910895FE
:101430000F931F93CF93DF93EC018A019A8D8B8DCD
:10144000981710F080E017C0CE01422F0E94D709F4
:101450008E8D8F3F69F48989882361F0CE01419692
:101460000E94180D882331F081E0F801808303C0C9
:101470008F5F8E8F81E0DF91CF911F910F91089543
:101480000F931F93CF93DF93EC010FB6F8940F9255
:101490008C010F5E1F4F0DC08989882369F0C80138
:1014A0000E94180D882311F00E94140D8E8D81501A
:1014B0008E8F8E8D181684F38FEF8E8F0F900FBE48
:1014C0000FB6F8940F928E01085F1F4F0DC08885EC
:1014D000882369F0C8010E94180D882311F00E942A
:1014E000140D8D8D81508D8F8D8D181684F38FEF97
:1014F0008D8F0F900FBEDF91CF911F910F910895A7
:101500007F928F929F92AF92BF92CF92DF92EF9293
:10151000FF920F931F93DF93CF9300D000D00F92D1
:10152000CDB7DEB78C01962E872E5D834C83722E4D
:1015300091E1C92ED12CC00ED11E20E07E0108946D
:10154000E11CF11C84E0A82EB12CAC0EBD1E01C024
:1015500021E00FB6F8940F92F801828D882309F4E8
:101560003EC0E680F7804081518141155105B1F0C0
:10157000848D9701280F311D3783268382819381C3
:101580002817390710F057834683F801448D668188
:101590007781892D982D50E00E949113772071F466
:1015A000F801828D8150828F80858823A1F0C80147
:1015B00008960E94180D813071F40BC0F801F78273
:1015C000E6828189882339F0C6010E94180D88239C
:1015D00011F00E9415090F900FBE81E04AC08C8166
:1015E0009D81892B19F40F900FBE42C0222319F45C
:1015F000C7010E94CB0C0F900FBE0E946F0C0FB65C
:10160000F8940F92F801858D8F3F09F4158EF8013B
:10161000868D8F3F09F4168E0F900FBEC701B5015E
:101620000E94D60C8823F9F40FB6F8940F92F801B3
:10163000828D0F900FBE882381F46C817D81C6015D
:101640000E94800EC8010E94400A0E94AC0E8823AE
:1016500009F07ECF0E9415097BCFC8010E94400A85
:101660000E94AC0E75CFC8010E94400A0E94AC0EC9
:1016700080E00F900F900F900F900F90CF91DF911F
:101680001F910F91FF90EF90DF90CF90BF90AF90A0
:101690009F908F907F9008957F928F929F92AF92AC
:1016A000BF92CF92DF92EF92FF920F931F93DF933F
:1016B000CF9300D000D00F92CDB7DEB78C016B0175
:1016C0005D834C83722E48E0E42EF12CE80EF91E67
:1016D00020E05E010894A11CB11C34E0832E912C03
:1016E0008C0E9D1E01C021E00FB6F8940F92F801F8
:1016F000928D838D9817A8F4C801B601472D0E94DA
:10170000D709F8018189882341F0C80141960E94D8
:10171000180D813011F40E9415090F900FBE81E061
:101720004CC08C819D81892B19F40F900FBE44C051
:10173000222319F4C5010E94CB0C0F900FBE0E940A
:101740006F0C0FB6F8940F92F801858D8F3F09F456
:10175000158EF801868D8F3F09F4168E0F900FBEFF
:10176000C501B4010E94D60C882309F50FB6F89480
:101770000F92F801928D0F900FBEF801838D98178C
:1017800081F46C817D81C7010E94800EC8010E9496
:10179000400A0E94AC0E882309F0A5CF0E941509CB
:1017A000A2CFC8010E94400A0E94AC0E9CCFC80183
:1017B0000E94400A0E94AC0E80E00F900F900F90A4
:1017C0000F900F90CF91DF911F910F91FF90EF90AD
:1017D000DF90CF90BF90AF909F908F907F900895B3
:1017E000AF92BF92CF92DF92EF92FF920F931F932F
:1017F000CF93DF93B82EA62E882309F442C08FE141
:1018000090E00E947807EC010097D9F1EB2CFF24BF
:10181000CA2CDD24CE9C8001CF9C100DDE9C100DC7
:101820001124C80101960E9478079C01998388833E
:10183000009721F1080F191F1B830A831A8E9D83BD
:101840008C830894E108F108EC9CC001ED9C900D9C
:10185000FC9C900D1124280F391F3F832E83BB8ED3
:10186000AC8E8FEF8D8F8E8FCE0108960E949F07D2
:10187000CE0141960E949F079E0105C0CE010E94A5
:10188000680720E030E0C901DF91CF911F910F91EF
:10189000FF90EF90DF90CF90BF90AF9008951F938F
:1018A000162F60E00E94F00BFC01009709F0128FE8
:1018B000CF011F910895FC01828593858C5095403E
:1018C00059F48489958924E08A3F920729F020E021
:1018D000892B19F421E001C020E0822F0895809126
:1018E000B8048F5F8093B80408950FB6F8940F92F0
:1018F0002091B6043091B7040F900FBEC90108952E
:101900002091B6043091B704C90108958091BB04B9
:1019100008958091B804882351F081E08093B40445
:1019200008958091B90481508093B90401C099E071
:10193000E091B904E99FF0011124E054FB4F80814C
:10194000882379F39091B90489E0989FD0011124FC
:10195000A054BB4F1196ED91FC9112970280F38138
:10196000E02D1296FC93EE931197CD010396E817A4
:10197000F90731F48281938112969C938E9311978B
:101980001196ED91FC911297868197819093B30403
:101990008093B2040895FC018091B5048083809106
:1019A000B6049091B704928381830895FC01DB0112
:1019B0000FB6F8940F924D915C9111978FEF4F3FB6
:1019C000580761F19091B5048081981749F02091F2
:1019D000B6043091B704818192812817390700F548
:1019E0008091B6049091B70421813281821B930BC0
:1019F00084179507A8F48091B6049091B704281B2A
:101A0000390B240F351F2D933C938091B5048083AF
:101A10008091B6049091B7049283818380E001C0E5
:101A200081E00F900FBE089581E08093B404089583
:101A30000F931F93CF93DF93FC010580F681E02D78
:101A400006811781E8012C96CE010E941108809131
:101A5000B8048823A9F4E8012296CE010E94110857
:101A6000D80156969C918091B904891710F49093EF
:101A7000B90489E0989FC001112480549B4F02C093
:101A80008AEF94E0BE010E94B307E091B204F091A6
:101A9000B30420E0D80156969C918689981708F0E7
:101AA00021E0822FDF91CF911F910F910895FF9236
:101AB0000F931F93CF93DF938091B804882309F08D
:101AC0008FC08091B6049091B70401969093B704AB
:101AD0008093B6048091B6049091B704892B79F570
:101AE0002091F6043091F7048091F8049091F90464
:101AF0009093F7048093F6043093F9042093F8044C
:101B00008091B5048F5F8093B504E091F604F09165
:101B1000F7048081882319F48FEF9FEF0CC0E091C8
:101B2000F604F091F7040580F681E02D0680F78138
:101B3000E02D82819381909386008093850020918F
:101B4000B6043091B70480918500909186002817E3
:101B5000390708F44AC089E0F82EE091F604F091C4
:101B6000F7048081882339F48FEF9FEF90938600EC
:101B7000809385003AC0E091F604F091F704058067
:101B8000F681E02DC681D7812A813B818091B60400
:101B90009091B7048217930728F43093860020931E
:101BA000850023C08E010E5F1F4FC8010E941108DF
:101BB0008C899D89892B21F0CE010C960E941108F9
:101BC0009E898091B904891710F49093B9049F9D60
:101BD000C001112480549B4FB8010E94B307BDCFB0
:101BE0008091BA048F5F8093BA04DF91CF911F91E7
:101BF0000F91FF900895DF92EF92FF920F931F9342
:101C0000CF93DF93EC018A859B858C50954091F5AD
:101C10008C899D8924E08A3F920761F1892B51F5D7
:101C200033C0DE88E091B204F091B304068992E0FB
:101C3000E92EF12CEC0EFD1EC7010E9411086E89E1
:101C40008091B904861710F46093B90410E0D0169F
:101C500008F011E089E0689FC001112480549B4F77
:101C6000B7010E94B30707C02C968AEF94E0BE012B
:101C70000E94B30710E0812FDF91CF911F910F9148
:101C8000FF90EF90DF9008958091B804882349F287
:101C9000EBCFCF93DF93EC01E091B204F091B3046A
:101CA000938382838091B6049091B704C817D907B3
:101CB00068F48091F8049091F9046091B2047091F5
:101CC000B3046E5F7F4F0E94DC0717C08091F6045B
:101CD0009091F7046091B2047091B3046E5F7F4FEE
:101CE0000E94DC078091850090918600C817D90773
:101CF00020F4D0938600C0938500DF91CF910895A2
:101D0000CF93DF93EB016091B2047091B304645FF1
:101D10007F4F0E94DC078091B2049091B304029639
:101D20000E9411088FEFCF3FD80759F46091B20499
:101D30007091B3046E5F7F4F8CE095E00E94B30713
:101D400008C08091B6049091B7048C0F9D1F0E942B
:101D5000490EDF91CF910895CF92DF92FF920F93BA
:101D60001F93DF93CF930F92CDB7DEB70FB6F894E2
:101D70000F928091B80481508093B8048091B80488
:101D8000882309F058C08091BB04882309F453C00C
:101D9000198229E0F22E2DC0E091FF04F091000598
:101DA000C680D780C6010C960E94110886010E5F7E
:101DB0001F4FC8010E941108D60156969C91809130
:101DC000B904891710F49093B9049F9DC0011124A0
:101DD00080549B4FB8010E94B307E091B204F09188
:101DE000B304D60156969C918689981710F0B1E0FD
:101DF000B9838091FA04882379F68091BA04882304
:101E000041F40CC00E94570D8091BA048150809318
:101E1000BA048091BA048823A9F707C0E981E130A8
:101E200021F08091B404813031F41092B4040E9406
:101E3000150981E001C080E00F900FBE0F90CF9197
:101E4000DF911F910F91FF90DF90CF9008950F9336
:101E50001F93CF93DF93EC01009709F43CC080916E
:101E6000B2049091B304C817D907A9F10FB6F8943A
:101E70000F928A859B858C509540F1F48C899D89C1
:101E800024E08A3F9207C1F0892BB1F418C09093E7
:101E9000B90489E0989FC001112480549B4FB80178
:101EA0000E94B307E091B204F091B3049E89868941
:101EB000981710F00E9415090F900FBE0CC08E01EC
:101EC0000E5F1F4FC8010E9411089E898091B904BE
:101ED0008917E8F2DECFDF91CF911F910F9108951E
:101EE000EF92FF920F931F93CF93DF938C010FB666
:101EF000F8940F928091B2049091B30408171907D7
:101F000019F400E010E003C00115110529F4C09197
:101F1000B204D091B30401C0E80132E0E32EF12C09
:101F2000EC0EFD1EC7010E9411088C899D89892B2A
:101F300021F0CE010C960E9411088CE095E0B701CB
:101F40000E94B3070F900FBE012BA1F48091BC0437
:101F5000882319F00E9415090DC090910C058091FD
:101F6000BB04981729F41092B3041092B20402C073
:101F70000E94890CDF91CF911F910F91FF90EF90FC
:101F800008950F931F93CF93DF93EC010097C9F04F
:101F90008091B8048F5F8093B8040091B6041091CB
:101FA000B7048091B2049091B30402960E94110884
:101FB000CE01800F911F0E94490E0E94AC0E882313
:101FC00011F40E941509DF91CF911F910F9108958F
:101FD000CF93DF93FC01EB018091B8048F5F809376
:101FE000B80420813181C20FD31F8091B604909133
:101FF000B7048217930728F4C217D30728F020E00C
:102000000CC0C217D30740F08091B6049091B7047A
:1020100020E08C179D0708F421E0D183C0832223A0
:1020200051F08091B2049091B30402960E9411087D
:10203000CE010E94490E0E94AC0E882311F40E942A
:102040001509DF91CF910895EF92FF920F931F939F
:10205000CF93DF938C010FB6F8940F928091B20466
:102060009091B3040817190719F400E010E003C0B9
:102070000115110529F4C091B204D091B30401C037
:10208000E80142E0E42EF12CEC0EFD1EC7010E9497
:1020900011088C899D89892B21F0CE010C960E9414
:1020A000110883E095E0B7010E94B3078091BD0459
:1020B0008F5F8093BD048091BE048F5F8093BE04C8
:1020C0000F900FBE8091BC04882321F0012B11F4E6
:1020D0000E941509DF91CF911F910F91FF90EF9012
:1020E0000895F8941092BC040E94B60808950F93C6
:1020F0001F938091BD048823E1F38091B8048F5F22
:102100008093B804109103050E94AC0E112389F34B
:102110000FB6F8940F92E0910805F0910905068139
:102120001781C80102960E9411088091BB0481505A
:102130008093BB048091BD0481508093BD040F90B7
:102140000FBEF8018789908D0E946807C8010E9420
:102150006807CFCF2F923F925F926F927F928F92BC
:102160009F92AF92BF92CF92DF92EF92FF920F9326
:102170001F93DF93CF9300D000D0CDB7DEB79A8303
:1021800089834B015A011901502E370181E290E0F9
:102190000E9478078B839C838B819C81892B89F09B
:1021A000C114D10421F4C5010E9478076C01EB81B0
:1021B000FC81D08EC78AC114D10429F4CF010E94BA
:1021C00068078FEFDAC0C60165EA70E0A5010E94DA
:1021D0009A130894A108B108EB81FC81E788F08C80
:1021E000EA0CFB1CCF014996B40148E050E00E9484
:1021F000A113EB81FC8110A2052DF3E0F51508F485
:1022000003E0EB81FC81068B62E0C62ED12CCE0E62
:10221000DF1EC6010E94AF078B819C810C960E9435
:10222000AF078B819C81FC019187808784E090E0DF
:10223000801B910995878487F38BE28BC7016981A5
:102240007A81A1010E943908EB81FC81918380830E
:102250006114710421F0CF01F301918380830FB6E3
:10226000F8940F928091BB048F5F8093BB048091A0
:10227000B2049091B304892BE1F5EB81FC81F093DA
:10228000B304E093B2048091BB04813009F042C0F2
:1022900080EC94E00E949F0789EC94E00E949F07E5
:1022A00082ED94E00E949F078BED94E00E949F07CF
:1022B00054EEE52E54E0F52EC7010E949F070DEE67
:1022C00014E0C8010E949F078AEF94E00E949F07D4
:1022D00083E095E00E949F078CE095E00E949F07B5
:1022E000F092F704E092F6041093F9040093F804D6
:1022F00011C08091BC04882369F4E091B204F0918C
:10230000B3048689581630F08B819C819093B30476
:102310008093B204EB81FC8196898091BF04891778
:1023200010F49093BF048091BE048F5F8093BE042D
:10233000EB81FC8196898091B904891710F4909300
:10234000B904EB81FC81868929E0829FC0011124B8
:1023500080549B4FB6010E94B3070F900FBE80912F
:10236000BC04882349F0E091B204F091B30486895B
:10237000851510F40E94150981E00F900F900F90C1
:102380000F90CF91DF911F910F91FF90EF90DF9011
:10239000CF90BF90AF909F908F907F906F905F9005
:1023A0003F902F900895AF92BF92CF92DF92EF921D
:1023B000FF920F9387E790E160E670E046E450E01B
:1023C00020E030E000E0EE24FF24CC24DD24AA2429
:1023D000BB240E94AA10813049F4F8948093BC0475
:1023E0001092B7041092B6040E9481080F91FF90DA
:1023F000EF90DF90CF90BF90AF90089580E061E0C4
:1024000041E00E94E80180E064E041E00E94E801D0
:1024100080E067E041E00E94E80181E062E041E0A5
:102420000E94E801089580E061E040E00E94E80138
:1024300080E064E040E00E94E80180E067E040E086
:102440000E94E80181E062E040E00E94E80180E053
:1024500063E040E00E94E80181E061E040E00E942A
:10246000E80180E062E040E00E94E80181E060E095
:1024700040E00E94E80180E060E041E00E94E80165
:1024800080E066E041E00E94E80180E065E041E034
:102490000E94E80181E063E041E00E94E8010895C4
:1024A00080E061E041E00E94E80180E064E041E01A
:1024B0000E94E80180E067E041E00E94E80181E0DD
:1024C00062E041E00E94E801089580E061E040E0C0
:1024D0000E94E80180E064E040E00E94E80180E0C2
:1024E00067E040E00E94E80181E062E040E00E9495
:1024F000E80180E060E040E00E94E80180E066E002
:1025000040E00E94E80180E065E040E00E94E801D0
:1025100081E063E040E00E94E80180E063E041E0A8
:102520000E94E80181E061E041E00E94E80180E072
:1025300062E041E00E94E80181E060E041E00E9449
:10254000E801089583E062E040E00E94740183E0C6
:1025500063E040E00E94740180E062E00E945F005E
:1025600081E062E00E945F0080E00E94AE0081E0B6
:102570000E94AE000E945700089580E06FEF0E9415
:10258000B10281E06FEF0E94B102089581E0809373
:102590001505089581E0809316050895AF92BF92C6
:1025A000CF92DF92EF92FF920F930E94BD120E9492
:1025B000A21286EC92E10E94EA008AEC92E10E946B
:1025C000EF0085E093E160E070E044EF51E020E04F
:1025D00030E001E0EE24FF24CC24DD24AA24BB2437
:1025E0000E94AA1080E093E160E070E044EF51E0C7
:1025F00020E030E002E00E94AA100E94D311FFCF39
:1026000084E690E00E94C10FFBCF1F9311E0809100
:102610001705882311F40E94651280E197E20E9459
:10262000C10F109317050E94501280ED97E00E9491
:10263000C10F80911705813011F40E94131280E1BF
:1026400097E20E94C10F109217050E94FE1180EDC3
:1026500097E00E94C10F80911505882381F081E0E9
:1026600066E041E00E94E80181E067E040E00E940E
:10267000E80188E893E10E94C10F1092150580914E
:102680001605882321F281E064E041E00E94E80120
:1026900081E065E040E00E94E80188E893E10E9463
:1026A000C10F10921605B3CF97FB092E05260ED049
:1026B00057FD04D014D00AD0001C38F45095409532
:1026C000309521953F4F4F4F5F4F0895F6F7909506
:1026D0008095709561957F4F8F4F9F4F0895A1E230
:1026E0001A2EAA1BBB1BFD010DC0AA1FBB1FEE1F8C
:1026F000FF1FA217B307E407F50720F0A21BB30BD7
:10270000E40BF50B661F771F881F991F1A9469F752
:1027100060957095809590959B01AC01BD01CF01AE
:102720000895FB01DC0102C001900D924150504020
:10273000D8F70895DC0101C06D9341505040E0F797
:102740000895FB01DC014150504048F001900D928A
:102750000020C9F701C01D9241505040E0F7089594
:04276000F894FFCF1B
:1027640049444C45003738392F3435362A31323311
:102774002D63303D2B020202020001020303030316
:082784000300010203FFFF0046
:00000001FF
