:100000000C942A000C94430F0C94020F0C9447009C
:100010000C9447000C9447000C9447000C94B205D4
:100020000C9447000C9447000C9447000C94470034
:100030000C9447000C9447000C9447000C94470024
:100040000C9447000C9447000C9447000C94470014
:100050000C94470011241FBECFE5D8E0DEBFCDBF12
:1000600010E0A0E6B0E0E0E8F1E202C005900D92F9
:10007000AA36B107D9F716E0AAE6B0E001C01D9292
:10008000AD3EB107E1F70E94840F0C94BE100C94B2
:1000900000008FB780688FBF08958FB78F778FBFAD
:1000A0000895813009F1813020F0823009F047C095
:1000B0003AC0613051F0613028F0623061F0633055
:1000C000F1F50CC085B78E7F02C085B7816085BF12
:1000D00085B78D7F26C085B78E7F02C085B78160CA
:1000E00085BF85B782601DC0613069F0613028F03E
:1000F000623061F0633019F50FC085B7877F85BF27
:1001000085B78B7F0EC085B7877F08C085B78B7F8B
:1001100085BF85B7886005C085B7886085BF85B70E
:10012000846085BF0895623019F0633041F404C0E3
:1001300084B78F7B84BF089584B7806484BF08959B
:10014000813041F0813018F0823059F407C08BB70C
:10015000806402C08BB780688BBF08958BB78062C4
:100160008BBF0895813041F0813018F0823059F40E
:1001700007C08BB78F7B02C08BB78F778BBF08957B
:100180008BB78F7D8BBF0895813061F0813020F077
:10019000823069F080E008958AB7829586958695C9
:1001A000817008958AB7881F8827881F08958AB7A5
:1001B000829586958170089590936B0080936A0074
:1001C000089590936D0080936C00089590936F0054
:1001D00080936E0008954423C9F1413009F06EC048
:1001E000813099F0813030F08230D1F0833009F0E5
:1001F00065C021C02AB381E090E002C0880F991F3A
:100200006A95E2F7282B2ABB089527B381E090E096
:1002100002C0880F991F6A95E2F7282B27BB089523
:1002200024B381E090E002C0880F991F6A95E2F73D
:10023000282B24BB089521B381E090E002C0880FF1
:10024000991F6A95E2F7282B21BB0895813099F018
:10025000813028F08230D9F0833081F524C02AB370
:1002600081E090E002C0880F991F6A95E2F78095BF
:1002700082238ABB089527B381E090E002C0880FF3
:10028000991F6A95E2F78095822387BB089524B36E
:1002900081E090E002C0880F991F6A95E2F780958F
:1002A000822384BB089521B381E090E002C0880FCF
:1002B000991F6A95E2F78095822381BB08954423B4
:1002C000C9F1413009F06EC0813099F0813030F0D1
:1002D0008230D1F0833009F065C021C02BB381E0BA
:1002E00090E002C0880F991F6A95E2F7282B2BBB7C
:1002F000089528B381E090E002C0880F991F6A95A5
:10030000E2F7282B28BB089525B381E090E002C0D6
:10031000880F991F6A95E2F7282B25BB089522B311
:1003200081E090E002C0880F991F6A95E2F7282BC0
:1003300022BB0895813099F0813028F08230D9F0C5
:10034000833081F524C02BB381E090E002C0880F98
:10035000991F6A95E2F7809582238BBB089528B395
:1003600081E090E002C0880F991F6A95E2F78095BE
:10037000822388BB089525B381E090E002C0880FF6
:10038000991F6A95E2F78095822385BB089522B371
:1003900081E090E002C0880F991F6A95E2F780958E
:1003A000822382BB0895813051F0813030F0823059
:1003B00041F0833079F080E0089589B303C086B3BB
:1003C00001C083B390E002C0959587956A95E2F7E6
:1003D0008170089580B390E002C0959587956A95E5
:1003E000E2F781700895813091F0813028F08230F9
:1003F000C9F0833061F521C02BB381E090E002C0E9
:10040000880F991F6A95E2F728272BBB089528B318
:1004100081E090E002C0880F991F6A95E2F72827D3
:1004200028BB089525B381E090E002C0880F991F92
:100430006A95E2F7282725BB089522B381E090E072
:1004400002C0880F991F6A95E2F7282722BB0895FA
:10045000813049F0813028F0823039F0833041F426
:1004600006C06ABB089567BB089564BB089561BB6D
:100470000895813049F0813028F0823039F083309E
:1004800041F406C06BBB089568BB089565BB089531
:1004900062BB0895EF92FF920F931F93FC010580BA
:1004A000F681E02DE680F7808701045F1F4FC801C9
:1004B0000E94B10481EA90E0B8010E94530420E058
:1004C000E0917000F0917100D70156969C91868959
:1004D000981708F021E0822F1F910F91FF90EF9065
:1004E0000895FF920F931F93CF93DF9399E0F92E16
:1004F00021C0F894E091A600F091A7000681178131
:10050000C8010C960E94B1047894E8012296CE01AD
:100510000E94B104F801968980917200891710F445
:10052000909372009F9DC001112487589F4FBE0178
:100530000E9453048091A1008823D9F60E941509D6
:100540002091730030917400821B930B909376007E
:100550008093750089E0F82E53C00196909378003F
:1005600080937700215030403093760020937500BF
:10057000892B09F03EC020919D0030919E00809112
:100580009F009091A00090939E0080939D003093D7
:10059000A00020939F002DC00580F681E02DC6812C
:1005A000D78120917700309178008A819B8128172C
:1005B000390730F1F8948E010E5F1F4FC8010E9479
:1005C000B1048C899D89892B21F0CE010C960E9463
:1005D000B10478949E8980917200891710F49093E9
:1005E00072009F9DC001112487589F4FB8010E943F
:1005F0005304E0919D00F0919E008081882361F674
:10060000209175003091760080917700909178006C
:100610002115310509F0A1CF9093740080937300E8
:100620009091720029E006C0992319F4109272008B
:1006300032C09150929FD0011124A758BF4F8C9186
:10064000882391F3909372001196ED91FC9112978B
:100650000280F381E02D1296FC93EE931197CD0169
:100660000396E817F90731F48281938112969C93DF
:100670008E9311971196ED91FC9112970680F78158
:10068000E02DF0937100E093700020813181CF0163
:100690006789F9010995DF91CF911F910F91FF9023
:1006A00008950F931F93CF93DF93EB010091770091
:1006B00010917800080F191F8091700090917100BF
:1006C00002960E94B104E0917000F09171001383D2
:1006D00002838091770090917800BF016E5F7F4F19
:1006E0000817190728F480919F009091A00004C07A
:1006F00080919D0090919E000E947C04209749F07B
:100700006091700070917100645F7F4FCE010E9414
:100710007C04DF91CF911F910F910895AF92BF920A
:10072000CF92DF92EF92FF920F931F93CF93DF93BD
:100730006C01B62EA42E8AE190E00E941804EC0110
:10074000009711F48FEF59C0809170009091710063
:10075000892B21F5D0937100C093700089E790E058
:100760000E943F0482E890E00E943F042BE8E22EC2
:1007700020E0F22EC7010E943F0404E910E0C80106
:100780000E943F0481EA90E00E943F04F0929E00A4
:10079000E0929D001093A00000939F00EB2CBB20E3
:1007A00011F0EE24E394198E188EEE8AAF8AFE01C2
:1007B000C192D1928F01CF010E944F04CE010C96BD
:1007C0000E944F04D987C887DB8BCA8B84E090E0F6
:1007D0008E1991099D878C879E8980917200891757
:1007E00010F49093720089E0989FC00111248758FB
:1007F0009F4FB8010E94530481E0DF91CF911F9178
:100800000F91FF90EF90DF90CF90BF90AF90089541
:1008100008951092AB001092AA0008952CED35E0D7
:100820008091AA009091AB00281B390BC901089553
:100830000F931F93CF93DF938C010E940F09809138
:10084000AA009091AB009801280F391F45E02C3D7C
:10085000340758F48217930740F4EC01C455DF4F76
:100860003093AB002093AA0002C0C0E0D0E00E9409
:100870004C0BCE01DF91CF911F910F910895FC0198
:100880009C012D5F3F4F328321838FEF9FEF948335
:100890008383368325833087278310820895FC0164
:1008A000118610860895CF93DF93AC01DB01EC0134
:1008B00029813A81F9018281938113969C938E93C9
:1008C000129789819A8115969C938E931497028032
:1008D000F381E02D75836483E9017B836A83FA01E8
:1008E0007283618319965C934E93189780818F5F12
:1008F0008083DF91CF910895CF93DF939C01EB012B
:10090000488159818FEF4F3F580721F4F901A781A2
:10091000B08510C0D901139604C012960D90BC91F9
:10092000A02D1296ED91FC9113978081918148172B
:10093000590798F71296ED91FC911397FB83EA8380
:10094000D583C483BD83AC831396DC93CE93129777
:1009500039872887F90180818F5F8083DF91CF916C
:100960000895CF93DF93DC011296ED91FC911397DC
:1009700014968D919C911597958384831496CD91AF
:10098000DC911597FB83EA831896ED91FC911997FA
:10099000818192818A179B0711F4D283C1831996B2
:1009A0001C921E921897808181508083DF91CF9195
:1009B0000895FC0191E1908322E2229383E38293E4
:1009C00062937293129280E88293129282E08293F1
:1009D00083E0829384E0829385E0829386E0829331
:1009E00087E0829388E0829389E0829380E182931A
:1009F000929382E1829383E1829384E1829385E101
:100A0000829386E1829387E1829388E1829389E1F0
:100A1000829380E2829381E28293229383E28293A3
:100A20004293529386E2829387E2829388E2829392
:100A300089E2829380E3829381E382933197CF01AD
:100A400008951BBC8CE78ABD8BE08EBD89B78061A1
:100A500089BFA0918806B0918906CD91CDBFDD9167
:100A6000DEBFFF91EF91DF91CF91BF91AF919F9149
:100A70008F917F916F915F914F913F912F911F9136
:100A80000F91FF90EF90DF90CF90BF90AF909F902D
:100A90008F907F906F905F904F903F902F901F901E
:100AA0000F900FBE0F90089581E0089508950F9262
:100AB0000FB6F8940F921F9211242F923F924F92EB
:100AC0005F926F927F928F929F92AF92BF92CF92DE
:100AD000DF92EF92FF920F931F932F933F934F93C9
:100AE0005F936F937F938F939F93AF93BF93CF93B6
:100AF000DF93EF93FF93A0918806B09189060DB61E
:100B00000D920EB60D920E94F7090E942909A0913C
:100B10008806B0918906CD91CDBFDD91DEBFFF91F2
:100B2000EF91DF91CF91BF91AF919F918F917F9185
:100B30006F915F914F913F912F911F910F91FF9076
:100B4000EF90DF90CF90BF90AF909F908F907F906D
:100B50006F905F904F903F902F901F900F900FBE1F
:100B60000F9008950E94570518950F920FB6F894AC
:100B70000F921F9211242F923F924F925F926F9289
:100B80007F928F929F92AF92BF92CF92DF92EF921D
:100B9000FF920F931F932F933F934F935F936F9306
:100BA0007F938F939F93AF93BF93CF93DF93EF93F5
:100BB000FF93A0918806B09189060DB60D920EB6EE
:100BC0000D920E942909A0918806B0918906CD91C5
:100BD000CDBFDD91DEBFFF91EF91DF91CF91BF914E
:100BE000AF919F918F917F916F915F914F913F91C5
:100BF0002F911F910F91FF90EF90DF90CF90BF90BA
:100C0000AF909F908F907F906F905F904F903F90AC
:100C10002F901F900F900FBE0F900895FC010FB6FC
:100C2000F8940F92828D0F900FBE0895FC01828D73
:100C30000895FC01828D90E0882309F491E0892FCA
:100C40000895FC01928D20E0838D981709F421E02E
:100C5000822F08950F931F938C01FC018081918155
:100C60000E940804C8010E9408041F910F91089572
:100C70000F931F93CF93DF93EC01FB018A018A8DC1
:100C8000882381F14881598141155105A9F08C8D46
:100C90002E813F81280F311D3F832E838A819B81C6
:100CA0002817390710F05F834E834C8D6E817F814A
:100CB000CF0150E00E949F108A8D81508A8F8D8DC8
:100CC0008F3F69F48885882361F0CE0108960E94E1
:100CD000B809882331F081E0F801808303C08F5F79
:100CE0008D8F81E0DF91CF911F910F910895CF9368
:100CF000DF93EC01842F4C8D4423A1F18823B1F4C0
:100D00008C819D8150E00E949F108C8D2C813D81B3
:100D1000280F311D3D832C838A819B812817390739
:100D200008F1888199819D838C831CC08E819F816D
:100D300050E00E949F108C8D90E044275527481B5F
:100D4000590B8E819F81840F951F9F838E832881ED
:100D500039818217930730F48A819B81840F951F14
:100D60009F838E838A8D8F5F8A8FDF91CF910895C5
:100D70000F931F93CF93DF93EC018A019A8D8B8D94
:100D8000981710F080E017C0CE01422F0E9477061E
:100D90008E8D8F3F69F48989882361F0CE01419659
:100DA0000E94B809882331F081E0F801808303C0F4
:100DB0008F5F8E8F81E0DF91CF911F910F9108950A
:100DC0000F931F93CF93DF93EC010FB6F8940F921C
:100DD0008C010F5E1F4F0DC08989882369F0C801FF
:100DE0000E94B809882311F00E94B4098E8D8150A9
:100DF0008E8F8E8D181684F38FEF8E8F0F900FBE0F
:100E00000FB6F8940F928E01085F1F4F0DC08885B2
:100E1000882369F0C8010E94B809882311F00E9454
:100E2000B4098D8D81508D8F8D8D181684F38FEFC1
:100E30008D8F0F900FBEDF91CF911F910F9108956D
:100E40007F928F929F92AF92BF92CF92DF92EF925A
:100E5000FF920F931F93DF93CF9300D000D00F9298
:100E6000CDB7DEB78C01962E872E5D834C83722E14
:100E700091E1C92ED12CC00ED11E20E07E01089434
:100E8000E11CF11C84E0A82EB12CAC0EBD1E01C0EB
:100E900021E00FB6F8940F92F801828D882309F4AF
:100EA0003EC0E680F7804081518141155105B1F087
:100EB000848D9701280F311D37832683828193818A
:100EC0002817390710F057834683F801448D66814F
:100ED0007781892D982D50E00E949F10772071F422
:100EE000F801828D8150828F80858823A1F0C8010E
:100EF00008960E94B809813071F40BC0F801F7829E
:100F0000E6828189882339F0C6010E94B8098823C6
:100F100011F00E94B5050F900FBE81E04AC08C8190
:100F20009D81892B19F40F900FBE42C0222319F422
:100F3000C7010E946B090F900FBE0E940F090FB6E8
:100F4000F8940F92F801858D8F3F09F4158EF80102
:100F5000868D8F3F09F4168E0F900FBEC701B50125
:100F60000E9476098823F9F40FB6F8940F92F801DD
:100F7000828D0F900FBE882381F46C817D81C60124
:100F80000E94200BC8010E94E0060E944C0B88239F
:100F900009F07ECF0E94B5057BCFC8010E94E00614
:100FA0000E944C0B75CFC8010E94E0060E944C0BBA
:100FB00080E00F900F900F900F900F90CF91DF91E6
:100FC0001F910F91FF90EF90DF90CF90BF90AF9067
:100FD0009F908F907F9008957F928F929F92AF9273
:100FE000BF92CF92DF92EF92FF920F931F93DF9306
:100FF000CF9300D000D00F92CDB7DEB78C016B013C
:101000005D834C83722E48E0E42EF12CE80EF91E2D
:1010100020E05E010894A11CB11C34E0832E912CC9
:101020008C0E9D1E01C021E00FB6F8940F92F801BE
:10103000928D838D9817A8F4C801B601472D0E94A0
:101040007706F8018189882341F0C80141960E9402
:10105000B809813011F40E94B5050F900FBE81E0F0
:101060004CC08C819D81892B19F40F900FBE44C018
:10107000222319F4C5010E946B090F900FBE0E9434
:101080000F090FB6F8940F92F801858D8F3F09F480
:10109000158EF801868D8F3F09F4168E0F900FBEC6
:1010A000C501B4010E947609882309F50FB6F894AA
:1010B0000F92F801928D0F900FBEF801838D981753
:1010C00081F46C817D81C7010E94200BC8010E94C0
:1010D000E0060E944C0B882309F0A5CF0E94B505BD
:1010E000A2CFC8010E94E0060E944C0B9CCFC80111
:1010F0000E94E0060E944C0B80E00F900F900F9032
:101100000F900F90CF91DF911F910F91FF90EF9073
:10111000DF90CF90BF90AF909F908F907F90089579
:10112000AF92BF92CF92DF92EF92FF920F931F93F5
:10113000CF93DF93B82EA62E882309F442C08FE107
:1011400090E00E941804EC010097D9F1EB2CFF24E9
:10115000CA2CDD24CE9C8001CF9C100DDE9C100D8E
:101160001124C80101960E9418049C019983888368
:10117000009721F1080F191F1B830A831A8E9D8384
:101180008C830894E108F108EC9CC001ED9C900D63
:10119000FC9C900D1124280F391F3F832E83BB8E9A
:1011A000AC8E8FEF8D8F8E8FCE0108960E943F04FC
:1011B000CE0141960E943F049E0105C0CE010E94CF
:1011C000080420E030E0C901DF91CF911F910F9119
:1011D000FF90EF90DF90CF90BF90AF9008951F9356
:1011E000162F60E00E949008FC01009709F0128F12
:1011F000CF011F910895FC0182859385825E964000
:1012000059F48489958926E0803D920729F020E0F1
:10121000892B19F421E001C020E0822F08958091EC
:101220008E068F5F80938E0608950FB6F8940F9206
:1012300020918C0630918D060F900FBEC901089544
:1012400020918C0630918D06C901089580919106F8
:10125000089580918E06882351F081E080938A065C
:10126000089580918F06815080938F0601C099E088
:10127000E0918F06E99FF0011124EA56F94F808131
:10128000882379F390918F0689E0989FD0011124EB
:10129000AA56B94F1196ED91FC9112970280F381F5
:1012A000E02D1296FC93EE931197CD010396E8176B
:1012B000F90731F48281938112969C938E93119752
:1012C0001196ED91FC9112978681978190938906F2
:1012D000809388060895FC0180918B06808380911D
:1012E0008C0690918D06928381830895FC01DB0129
:1012F0000FB6F8940F924D915C9111978FEF4F3F7D
:10130000580761F190918B068081981749F02091E0
:101310008C0630918D06818192812817390700F55E
:1013200080918C0690918D0621813281821B930BD6
:1013300084179507A8F480918C0690918D06281B40
:10134000390B240F351F2D933C9380918B0680839E
:1013500080918C0690918D069283818380E001C0FC
:1013600081E00F900FBE089581E080938A06089572
:101370000F931F93CF93DF93FC010580F681E02D3F
:1013800006811781E8012C96CE010E94B10480915C
:101390008E068823A9F4E8012296CE010E94B104AA
:1013A000D80156969C9180918F06891710F49093DE
:1013B0008F0689E0989FC00111248A56994F02C078
:1013C00080ED96E0BE010E945304E0918806F09102
:1013D000890620E0D80156969C918689981708F0D6
:1013E00021E0822FDF91CF911F910F910895FF92FD
:1013F0000F931F93CF93DF9380918E06882309F07C
:101400008FC080918C0690918D06019690938D06E9
:1014100080938C0680918C0690918D06892B79F5AE
:101420002091CC063091CD068091CE069091CF06CA
:101430009093CD068093CC063093CF062093CE06B2
:1014400080918B068F5F80938B06E091CC06F091A4
:10145000CD068081882319F48FEF9FEF0CC0E091B7
:10146000CC06F091CD060580F681E02D0680F7814F
:10147000E02D828193819093660080936500209196
:101480008C0630918D06809165009091660028173A
:10149000390708F44AC089E0F82EE091CC06F091B3
:1014A000CD068081882339F48FEF9FEF90936600FB
:1014B000809365003AC0E091CC06F091CD0605809E
:1014C000F681E02DC681D7812A813B8180918C06EF
:1014D00090918D068217930728F43093660020932D
:1014E000650023C08E010E5F1F4FC8010E94B1042A
:1014F0008C899D89892B21F0CE010C960E94B10424
:101500009E8980918F06891710F490938F069F9D76
:10151000C00111248A56994FB8010E945304BDCFCF
:10152000809190068F5F80939006DF91CF911F91FD
:101530000F91FF900895DF92EF92FF920F931F9308
:10154000CF93DF93EC018A859B85825E964091F56F
:101550008C899D8926E0803D920761F1892B51F5A8
:1015600033C0DE88E0918806F0918906068992E012
:10157000E92EF12CEC0EFD1EC7010E94B1046E890C
:1015800080918F06861710F460938F0610E0D016B6
:1015900008F011E089E0689FC00111248A56994F34
:1015A000B7010E94530407C02C9680ED96E0BE015F
:1015B0000E94530410E0812FDF91CF911F910F9172
:1015C000FF90EF90DF90089580918E06882349F276
:1015D000EBCFCF93DF93EC01E0918806F091890681
:1015E0009383828380918C0690918D06C817D907CA
:1015F00068F48091CE069091CF0660918806709134
:1016000089066E5F7F4F0E947C0417C08091CC06D4
:101610009091CD0660918806709189066E5F7F4F2C
:101620000E947C048091650090916600C817D907DC
:1016300020F4D0936600C0936500DF91CF910895A8
:10164000CF93DF93EB016091880670918906645F08
:101650007F4F0E947C0480918806909189060296B3
:101660000E94B1048FEFCF3FD80759F460918806EC
:10167000709189066E5F7F4F82EE96E00E94530460
:1016800008C080918C0690918D068C0F9D1F0E9442
:10169000E90ADF91CF910895CF92DF92FF920F93E5
:1016A0001F93DF93CF930F92CDB7DEB70FB6F894A9
:1016B0000F9280918E06815080938E0680918E06C7
:1016C000882309F058C080919106882309F453C0FB
:1016D000198229E0F22E2DC0E091D506F091D606B0
:1016E000C680D780C6010C960E94B10486010E5FA9
:1016F0001F4FC8010E94B104D60156969C9180915B
:101700008F06891710F490938F069F9DC0011124B6
:101710008A56994FB8010E945304E0918806F091CF
:101720008906D60156969C918689981710F0B1E0EB
:10173000B9838091D006882379F68091900688231A
:1017400041F40CC00E94F70980919006815080936B
:101750009006809190068823A9F707C0E981E130BF
:1017600021F080918A06813031F410928A060E941D
:10177000B50581E001C080E00F900FBE0F90CF91C2
:10178000DF911F910F91FF90DF90CF9008950F93FD
:101790001F93CF93DF93EC01009709F43CC0809135
:1017A000880690918906C817D907A9F10FB6F89451
:1017B0000F928A859B85825E9640F1F48C899D8983
:1017C00026E0803D9207C1F0892BB1F418C09093B8
:1017D0008F0689E0989FC00111248A56994FB8015D
:1017E0000E945304E0918806F09189069E898689BB
:1017F000981710F00E94B5050F900FBE0CC08E0117
:101800000E5F1F4FC8010E94B1049E8980918F0610
:101810008917E8F2DECFDF91CF911F910F910895E4
:10182000EF92FF920F931F93CF93DF938C010FB62C
:10183000F8940F92809188069091890608171907ED
:1018400019F400E010E003C00115110529F4C0915E
:101850008806D091890601C0E80132E0E32EF12C20
:10186000EC0EFD1EC7010E94B1048C899D89892B55
:1018700021F0CE010C960E94B10482EE96E0B701F1
:101880000E9453040F900FBE012BA1F48091920689
:10189000882319F00E94B5050DC09091E206809151
:1018A0009106981729F4109289061092880602C0B2
:1018B0000E942909DF91CF911F910F91FF90EF9026
:1018C00008950F931F93CF93DF93EC010097C9F016
:1018D00080918E068F5F80938E0600918C0610910A
:1018E0008D06809188069091890602960E94B10427
:1018F000CE01800F911F0E94E90A0E944C0B8823A1
:1019000011F40E94B505DF91CF911F910F910895B9
:10191000CF93DF93FC01EB0180918E068F5F809364
:101920008E0620813181C20FD31F80918C06909149
:101930008D068217930728F4C217D30728F020E0FA
:101940000CC0C217D30740F080918C0690918D0691
:1019500020E08C179D0708F421E0D183C083222367
:1019600051F0809188069091890602960E94B104F8
:10197000CE010E94E90A0E944C0B882311F40E94B8
:10198000B505DF91CF910895EF92FF920F931F93CA
:10199000CF93DF938C010FB6F8940F928091880655
:1019A000909189060817190719F400E010E003C0A8
:1019B0000115110529F4C0918806D091890601C04E
:1019C000E80142E0E42EF12CEC0EFD1EC7010E945E
:1019D000B1048C899D89892B21F0CE010C960E943F
:1019E000B10489ED96E0B7010E94530480919306FB
:1019F0008F5F80939306809194068F5F8093940607
:101A00000F900FBE80919206882321F0012B11F4D4
:101A10000E94B505DF91CF911F910F91FF90EF903C
:101A20000895F894109292060E94560508950F9317
:101A30001F93809193068823E1F380918E068F5F38
:101A400080938E061091D9060E944C0B112389F3C6
:101A50000FB6F8940F92E091DE06F091DF06068152
:101A60001781C80102960E94B104809191068150AD
:101A700080939106809193068150809393060F90F6
:101A80000FBEF8018789908D0E940804C8010E944A
:101A90000804CFCF2F923F925F926F927F928F92E6
:101AA0009F92AF92BF92CF92DF92EF92FF920F93ED
:101AB0001F93DF93CF9300D000D0CDB7DEB79A83CA
:101AC00089834B015A011901502E370181E290E0C0
:101AD0000E9418048B839C838B819C81892B89F0C5
:101AE000C114D10421F4C5010E9418046C01EB81DA
:101AF000FC81D08EC78AC114D10429F4CF010E9481
:101B000008048FEFDAC0C60165EA70E0A5010E9403
:101B1000A8100894A108B108EB81FC81E788F08C3B
:101B2000EA0CFB1CCF014996B40148E050E00E944A
:101B3000AF10EB81FC8110A2052DF3E0F51508F440
:101B400003E0EB81FC81068B62E0C62ED12CCE0E29
:101B5000DF1EC6010E944F048B819C810C960E945F
:101B60004F048B819C81FC019187808784E090E009
:101B7000801B910995878487F38BE28BC70169816C
:101B80007A81A1010E94D904EB81FC819183808339
:101B90006114710421F0CF01F301918380830FB6AA
:101BA000F8940F92809191068F5F809391068091B7
:101BB000880690918906892BE1F5EB81FC81F093F1
:101BC0008906E093880680919106813009F042C031
:101BD00086E996E00E943F048FE996E00E943F0468
:101BE00088EA96E00E943F0481EB96E00E943F0461
:101BF0005AEBE52E56E0F52EC7010E943F0403EC98
:101C000016E0C8010E943F0480ED96E00E943F0468
:101C100089ED96E00E943F0482EE96E00E943F0428
:101C2000F092CD06E092CC061093CF060093CE063C
:101C300011C080919206882369F4E0918806F091A2
:101C400089068689581630F08B819C81909389068D
:101C500080938806EB81FC8196898091950689178F
:101C600010F490939506809194068F5F809394066C
:101C7000EB81FC81968980918F06891710F49093EF
:101C80008F06EB81FC81868929E0829FC0011124A7
:101C90008A56994FB6010E9453040F900FBE80914F
:101CA0009206882349F0E0918806F091890686899A
:101CB000851510F40E94B50581E00F900F900F90EC
:101CC0000F90CF91DF911F910F91FF90EF90DF90D8
:101CD000CF90BF90AF909F908F907F906F905F90CC
:101CE0003F902F900895AF92BF92CF92DF92EF92E4
:101CF000FF920F9387E19DE060E670E046E450E0DC
:101D000020E030E000E0EE24FF24CC24DD24AA24EF
:101D1000BB240E944A0D813049F4F89480939206C6
:101D200010928D0610928C060E9421050F91FF9053
:101D3000EF90DF90CF90BF90AF90089580E060E08B
:101D40000E943902089580E06FE00E9439020895F0
:101D500081E060E00E943902089581E06FE00E9416
:101D60003902089582E060E00E943902089582E01D
:101D70006FE00E943902089583E062E040E00E9433
:101D8000EB0083E063E040E00E94EB0083E062E070
:101D900041E00E945F0183E063E041E00E945F0157
:101DA00080E062E00E94510081E062E00E94510008
:101DB00080E00E94A00081E00E94A0000E944900F3
:101DC000089580E06FE00E94280281E06FE00E94A9
:101DD000280282E06FE00E94280283E064E041E094
:101DE0000E94EB0083E065E041E00E94EB0083E0AD
:101DF00066E041E00E94EB0083E067E041E00E9482
:101E0000EB0008951F920F920FB60F921124AF921C
:101E1000BF92CF92DF92EF92FF920F932F933F9357
:101E20004F935F936F937F938F939F93AF93BF93E2
:101E3000EF93FF9381E090E160E070E046E450E0D2
:101E400020E030E003E0EE24FF24CC24DD24AA24AB
:101E5000BB240E944A0DFF91EF91BF91AF919F91DA
:101E60008F917F916F915F914F913F912F910F9142
:101E7000FF90EF90DF90CF90BF90AF900F900FBE8C
:101E80000F901F9018951F920F920FB60F9211246A
:101E9000AF92BF92CF92DF92EF92FF920F932F9368
:101EA0003F934F935F936F937F938F939F93AF93E2
:101EB000BF93EF93FF938FE490E160E070E046E41E
:101EC00050E020E030E003E0EE24FF24CC24DD24C9
:101ED000AA24BB240E944A0DFF91EF91BF91AF91BC
:101EE0009F918F917F916F915F914F913F912F9132
:101EF0000F91FF90EF90DF90CF90BF90AF900F9039
:101F00000FBE0F901F901895AF92BF92CF92DF92A5
:101F1000EF92FF920F9383E066E041E00E945F0141
:101F200083E064E041E00E945F010E94E10E0E94B4
:101F3000BC0E81E061E00E94EF089093EC06809374
:101F4000EB06892B09F4FFCF88EB9FE060E070E09F
:101F50004AEF50E020E030E001E0EE24FF24CC2402
:101F6000DD24AA24BB240E944A0D0E94730EFFCFD9
:101F700080916700813001F50E94B70E0E94A80E83
:101F80000E949E0E88E893E10E94610C0E94AD0EB3
:101F900080ED97E00E94610C0E94B20E0E94A80E94
:101FA0000E94A30E88E893E10E94610C0E94AD0E8E
:101FB00080ED97E00E94610C809167008230C1F64D
:101FC0000E94B20E0E94A80E0E94A30E88E893E120
:101FD0000E94610C0E94AD0E80ED97E00E94610CA2
:101FE0000E94B70E0E94A80E0E949E0E88E893E100
:101FF0000E94610C0E94AD0E80ED97E00E94610C82
:10200000B7CF8091EB069091EC0660E070E040E085
:1020100050E020E00E942007813091F50E94A80E38
:102020000E949E0E0E94B20E83E067E041E00E9493
:102030005F0183E066E040E00E945F010E94AD0E18
:1020400088EE93E00E94610C0E94A80E0E94B70ED9
:1020500080ED97E00E94610C0E94AD0E88EE93E047
:102060000E94610C82E0809367008091EB06909162
:10207000EC0660E070E040E050E020E00E94EC07F9
:1020800083E067E040E00E945F0183E066E041E0BA
:102090000E945F0180E090E00E94C40C08951F93AD
:1020A0008091EB069091EC0660E070E040E050E03B
:1020B00020E00E942007182F813089F50E94A80E89
:1020C0000E949E0E0E94B20E83E065E041E00E94F5
:1020D0005F0183E064E040E00E945F010E94AD0E7A
:1020E00088EE93E00E94610C0E94A80E0E94A30E4D
:1020F00080ED97E00E94610C0E94AD0E88EE93E0A7
:102100000E94610C8091EB069091EC0660E070E01B
:1021100040E050E020E00E94EC071093670083E06D
:1021200065E040E00E945F0183E064E041E00E94DE
:102130005F0180E090E00E94C40C1F910895FB01B4
:10214000DC0102C001900D9241505040D8F7089533
:10215000DC0101C06D9341505040E0F70895FB0150
:10216000DC014150504048F001900D920020C9F729
:1021700001C01D9241505040E0F70895F894FFCF00
:0A21800049444C4500FFFF01040034
:00000001FF
